:020000040800F2
:100000001808002089010008931800087D170008CF
:100010009118000891020008C11D000800000000AE
:100020000000000000000000000000009718000819
:100030000B0300080000000095180008991800083C
:10004000A3010008A3010008A3010008A301000800
:10005000A3010008A3010008A3010008A3010008F0
:10006000A3010008A3010008A3010008A3010008E0
:10007000A3010008A3010008C9020008D502000876
:10008000A3010008A3010008A3010008A3010008C0
:10009000A3010008A3010008A3010008A3010008B0
:1000A000FD18000809190008A3010008A3010008B1
:1000B000A3010008A3010008A3010008A301000890
:1000C000A3010008A3010008A3010008A301000880
:1000D000A3010008A91D0008A3010008B51D000820
:1000E000A3010008A3010008A301000800F002F822
:1000F00000F03AF80AA090E8000C82448344AAF188
:100100000107DA4501D100F02FF8AFF2090EBAE885
:100110000F0013F0010F18BFFB1A43F0010318473B
:10012000941E0000B41E0000103A24BF78C878C1A5
:10013000FAD8520724BF30C830C144BF04680C60ED
:10014000704700000023002400250026103A28BF35
:1001500078C1FBD8520728BF30C148BF0B60704739
:100160001FB51FBD10B510BD00F058F81146FFF7C0
:10017000F7FF01F037FE00F076F803B4FFF7F2FF67
:1001800003BC00F07FF80000094880470948004799
:10019000FEE7FEE7FEE7FEE7FEE7FEE7FEE7FEE737
:1001A000FEE7FEE704480549054A064B7047000094
:1001B000FB180008ED0000081802002018080020B5
:1001C00018040020180400204FF0000200B5134668
:1001D00094469646203922BFA0E80C50A0E80C5067
:1001E000B1F12001BFF4F7AF090728BFA0E80C5018
:1001F00048BF0CC05DF804EB890028BF40F8042B11
:1002000008BF704748BF20F8022B11F0804F18BF7D
:1002100000F8012B7047704770477047754600F033
:100220002BF8AE4605006946534620F00700854688
:1002300018B020B5FFF7B6FFBDE820404FF000062C
:100240004FF000074FF000084FF0000B21F00701BE
:10025000AC46ACE8C009ACE8C009ACE8C009ACE801
:10026000C0098D46704710B50446AFF300802046A4
:10027000BDE81040FFF781BF00487047B80100207B
:100280007047000001491820ABBEFEE726000200BF
:10029000FEE770B50446491E00208BB201460725D3
:1002A0000FE0625C50400022060602D585EA40005D
:1002B00000E04000521C92B2C0B2082AF4D3491C9C
:1002C00089B29942EDD370BD014800F091B80000A9
:1002D00074010020014800F08BB8000030010020BC
:1002E00030B590F840500124AC40C56B6C60046898
:1002F00063604368102B036803D099600068C26094
:1003000030BD9A600068C16030BD704772B6FEE7CC
:1003100010B590F821100022022905D00421816334
:1003200080F82020012010BD01680B6823F00E0327
:100330000B6001680B6823F001030B6090F84030FC
:10034000C46B012101FA03F3636080F8211080F887
:100350002020104610BD000010B590F82110002498
:10036000022903D00421816301243DE001680A6869
:1003700022F00E020A6001680A6822F001020A6097
:100380001A4A0168914201D1012121E0174A143231
:10039000914201D110211BE0144A2832914201D12F
:1003A000891515E0114A3C32914201D189140FE0C0
:1003B0000E4A5032914202D14FF4803108E00B4A8C
:1003C0006432914202D14FF4801101E04FF080710C
:1003D000064A083A5160012180F82110002180F876
:1003E0002010416B01B18847204610BD0800024033
:1003F0002DE9F05FC16B0C6801680B68D0F840C054
:10040000042202FA0CF2494DDFF824A1494E4A4F6A
:10041000DFF828B1DFF828E122422CD05A072AD58C
:100420000A68920603D40A6822F004020A6001688E
:10043000A94201D1042219E0514501D1402215E021
:10044000B14202D14FF4806210E0B94202D14FF4C0
:1004500080420BE0594502D14FF4802206E07145FD
:1004600002D14FF4800201E04FF080622F49083939
:100470004A60C16A3BE04FF0020808FA0CF818EA3B
:10048000040F4FF000094FF0010235D05FEA837886
:1004900032D50B689B0605D40B6823F00A030B606A
:1004A00080F821200168A94201D1022219E05145BA
:1004B00001D1202215E0B14202D14FF4007210E0C8
:1004C000B94202D14FF400520BE0594502D14FF42A
:1004D000003206E0714502D14FF4001201E04FF006
:1004E0000072124908394A6080F82090816A002918
:1004F0001AD0BDE8F05F0847082505FA0CF525423B
:1005000012D01B0710D50B6823F00E030B6090F878
:100510004010C36B02FA01F15960826380F8212018
:1005200080F82090016BE2E7BDE8F09F08000240F0
:100530001C000240300002404400024058000240CB
:100540006C00024030B528B308C81349142219447E
:10055000B1FBF2F18900C163104981630221417747
:100560001A6843F6F0718A43D0E900142143D0E9B8
:1005700002452C4321430469214344692143846992
:100580002143114319600021416301224277017721
:10059000084630BD012030BDF8FFFDBF000002401D
:1005A00070B5044690F82000002501280CD00120E9
:1005B00084F8200094F821600020012E06D084F8F1
:1005C00020000225284670BD022070BD022684F856
:1005D0002160A0632068066826F0010606602046B8
:1005E000FFF77EFEE06A00282068016802D041F033
:1005F0000E0106E021F0040101602068016841F06D
:100600000A0101602068016841F001010160D9E739
:100610002DE9F84FDFF8B8910024A9F1040B234627
:100620000F2709F1040AABF1040EC9E00125A5402A
:100630002A40AA427DD1674ED1F804C0ACEB06082F
:10064000B44532D014DCBCF1030F3AD009DCBCF164
:10065000000F2AD0BCF1010F1CD0BCF1020F31D128
:100660001DE0BCF1110F17D0BCF1120F2AD119E017
:10067000B8F5881F19D006DCB8F5803F15D0B8F55D
:10068000801F1FD111E0B8F5001F0ED0B8F5041F70
:1006900018D10AE0CB6815E0CB681B1D12E0CB68CF
:1006A00008330FE0CB680C330CE08B682BB1012BC7
:1006B0004FF0080303D0456104E0042302E0056124
:1006C00000E00023FF2A01D8064601E000F10406FD
:1006D0004FEA840501D9A5F12005D6F8008007FA74
:1006E00005FC28EA0C0803FA05F548EA0508C6F8EF
:1006F00000804D68ED0062D5374DAE6946F00106C9
:10070000AE61AD6924F0030605F001050095334D97
:1007100006EB050CDCF80850A607360F07FA06F8BA
:1007200025EA0805DFF8B880404503D14FF00008FE
:1007300017E044E0DFF8AC80404502D14FF00108FB
:100740000FE0DFF8A480404502D14FF0020808E036
:10075000DFF89880404502D14FF0030801E04FF0E8
:10076000040808FA06F848EA0508CCF808804D683D
:10077000D9F80060ED024D4601D5164300E09643DE
:100780002E604D68DAF80060AD02554601D516437B
:1007900000E096432E604D68DBF80060AD035D46D7
:1007A00001D5164300E096432E604D68DEF80060E8
:1007B000ED03754601D5164300E096432E60641C98
:1007C0000D682A46E5407FF431AFBDE8F88F0000A0
:1007D0000804014000001110001002400000014018
:1007E00000080140000C01400010014000140140CD
:1007F0000AB1016170470904FBE700000148806805
:100800007047000008000020024881680278114407
:100810008160704708000020074810B5016841F06A
:1008200010010160032000F075F80F2000F006F8B9
:1008300000F024F8002010BD0020024070B50D4DDE
:1008400004464FF47A712878B1FBF0F00A49096840
:10085000B1FBF0F000F0DCFA48B9102C07D200220E
:100860002146501E00F036F800206C6070BD01205B
:1008700070BD000008000020140000200C4808B5DE
:10088000816941F001018161816901F001010091FB
:10089000C16941F08051C161C06900F08050009091
:1008A0000448416821F0E06141F00071416008BDF9
:1008B0000010024000000140002809DB00F01F0288
:1008C000012191404009800000F1E020C0F80011B2
:1008D00070470000F0B40E4B1B680C46C3F30223B4
:1008E000C3F10705042D00D90425191D072901D2DC
:1008F000002300E0DB1E012606FA05F1491E214017
:1009000099409E40761E16403143F0BC01F059BA22
:100910000CED00E0064900F0070208684FF6FF03FF
:10092000184040EA0220034A104308607047000064
:100930000CED00E00000FA052DE9F0470F46050038
:1009400061D0434E306800F00700B84209D23068E9
:1009500020F0070038433060306800F00700B842EC
:1009600051D128683B4C810712D5400703D56068F8
:1009700040F4E06060602878000703D5606840F4C8
:10098000605060606068A96820F0F0000843606013
:100990002878C00728D06868012810D0216802286C
:1009A00010D0890700292EDA616821F00301014384
:1009B0006160FFF723FF804641F288390DE021682E
:1009C0008903EFE78901EDE7FFF718FFA0EB0801C6
:1009D000494502D90320BDE8F0876068696800F0E6
:1009E0000C00B0EB810FEFD1306800F00700B84287
:1009F0000BD9306820F0070038433060306800F0D1
:100A00000700B84201D00120E5E72878400705D566
:100A10006068E96820F4E0600843606028780007B7
:100A200006D56068296920F4605040EAC100606022
:100A300000F038F86168084AC1F30311515CC840FE
:100A40000649086006480068FFF7F8FE0020C2E784
:100A500000200240001002409C1F000814000020EB
:100A60000C0000200448054900684968044AC1F3A5
:100A70000221515CC8407047140000200010024061
:100A8000AC1F00080448054900684968044AC1F3DE
:100A9000C221515CC8407047140000200010024081
:100AA000AC1F00080E4A51680E4801F00C03042BDD
:100AB00011D0082B0FD10C48C1F38343C903C05C8C
:100AC0000AD55168084AC1F34041921E515C054A5B
:100AD0005043B0FBF1F070470449484370470000B1
:100AE0000010024000127A008C1F000800093D002F
:100AF0002DE9F84F040070D02078C04DC00749D0D0
:100B00006868C0F38100012807D06868C0F38100DD
:100B1000022809D16868C00306D52868800339D542
:100B200060680028E7D035E06068B0F5803F0BD002
:100B300010B1B0F5A02F11D0286820F480302860C3
:100B4000286820F4802002E0286840F48030286083
:100B5000606890B1FFF752FE06460AE0286840F44C
:100B600080202860F0E700BFFFF748FE801B642864
:100B700073D828688003F7D50CE0FFF73FFE0646E0
:100B800005E000BFFFF73AFE801B6428F0D8286814
:100B90008003F7D420789A4E80074FF001094FF078
:100BA000000839D5686810F00C0F07D06868C0F3EA
:100BB0008100022809D16868C00306D4286880072C
:100BC00014D52069012808D110E02069B0B1C6F819
:100BD0000090FFF713FE074605E00AE1FFF70EFE5F
:100BE000C01B0228C4D828688007F7D52868616927
:100BF00020F0F80040EAC10028600DE0C6F800804F
:100C0000FFF7FCFD074604E0FFF7F8FDC01B0228D4
:100C100023D828688007F7D4207800072CD5794896
:100C2000A169D9B1C0F80090FFF7E8FD074604E0DC
:100C3000FFF7E4FDC01B02280FD8686A8007F7D5CC
:100C400071484FF4FA510068B0FBF1F0009000BF1A
:100C50000098411E0091FAD20EE080E0C0F80080BA
:100C6000FFF7CCFD074604E0FFF7C8FDC01B0228D4
:100C700075D8686A8007F7D42078400760D5E8699E
:100C80000027C00008D4E86940F08050E861E869B6
:100C9000012700F0805000905C480168C90513D41A
:100CA0000168834641F480710160FFF7A7FD824629
:100CB00006E000BFFFF7A2FDA0EB0A0064284ED8B3
:100CC000DBF80000C005F5D5E06801280AD008B1BE
:100CD000052813D0286A20F001002862286A20F035
:100CE000040002E0286A40F001002862E06841F256
:100CF000883B98B1FFF782FD82460BE0286A40F0FE
:100D000004002862EEE700BFFFF778FDA0EB0A01C0
:100D100059455AD8286A8007F6D50CE0FFF76EFDD2
:100D2000824605E0FFF76AFDA0EB0A0159454CD861
:100D3000286A8007F6D41FB1E86920F08050E86186
:100D4000E06988B36968C1F38101022944D00228AF
:100D5000C6F8608004D0FFF751FD044638E034E067
:100D6000FFF74CFD074604E0FFF748FDC01B0228D3
:100D70002BD828688001F7D4206AB0F5803F05D1D0
:100D80006868A16820F4003008436860D4E908016D
:100D90000843696821F4741108436860C6F86090DC
:100DA000FFF72CFD044606E025E000BFFFF726FD17
:100DB000001B022809D828688001F7D51BE000BF76
:100DC000FFF71CFD001B022802D90320BDE8F88FA5
:100DD00028688001F4D40EE00128F7D06868226A00
:100DE00000F48031914204D1616A00F470108842AD
:100DF00001D00120EAE70020E8E7000000100240EF
:100E00000000424280044242140000200070004072
:100E100010B5401EB0F1807F01D3012010BD4FF00E
:100E2000E02460610F21601700F0CBFF0020A0617B
:100E300007202061002010BD7047704770B590F802
:100E40003C20012A26D0012480F83C40022280F870
:100E50003D2003685A689D6822F070060A68324394
:100E60005A600D4B02689A4208D0B2F1804F05D00B
:100E70000A4B9A4202D00A4B9A4204D1496825F0A3
:100E800080031943916080F83D40002180F83C10B8
:100E9000084670BD022070BD002C014000040040D7
:100EA0000008004010B5040003D094F83D0010B1D4
:100EB00007E0012010BD002084F83C00204600F02F
:100EC0001FF8022084F83D00211D206800F022FD5B
:100ED000012084F8460084F83E0084F83F0084F83E
:100EE000400084F8410084F8420084F8430084F80C
:100EF000440084F8450084F83D00002010BD000047
:100F000008B500680F4988421AD10F48816941F439
:100F1000006181618069002200F400600090114648
:100F20001820FFF7D7FC1820FFF7C6FC0022114657
:100F30001920FFF7CFFCBDE808401920FFF7BCBC23
:100F400008BD0000002C01400010024070B50446AE
:100F500090F83C000025012817D0012684F83C6059
:100F6000022084F83D002068826822F0770222F493
:100F70007F4282600868502838D00DDC20284FD08E
:100F800005DC90B3102811D14AE0022070BD302852
:100F900046D040280AD13BE060282FD070280DD0E1
:100FA000B0F5805F03D0B0F5005F12D0012584F862
:100FB0003D60002084F83C00284670BDCB68D1E934
:100FC0000121206800F0DCFC2068816841F0770195
:100FD00009E0CB68D1E90121206800F0D1FC20684C
:100FE000816841F480418160E1E719E0CA6849689D
:100FF000206800F0D7FC5021206806E0CA684968E4
:10100000206800F0E0FC6021206800F0C3FCCEE71F
:10101000CA684968206800F0C5FC40212068F4E7F0
:10102000226801461046F0E7704770B50446006834
:1010300001694FF00005C943890715D4C168C94348
:10104000890711D4E91E0161012020772068806999
:101050008007204602D0FFF7E7FF04E000F098F891
:10106000204600F096F8257720680169C9434907B2
:1010700017D4C168C943490713D46FF00401016153
:10108000022020772068806910F4407F204602D03B
:10109000FFF7CAFF04E000F07BF8204600F079F883
:1010A000257720680169C943090716D4C168C94377
:1010B000090712D46FF0080101610420207720682D
:1010C000C0698007204602D0FFF7AEFF04E000F0C1
:1010D0005FF8204600F05DF8257720680169C94374
:1010E000C90617D4C168C943C90613D46FF01001EB
:1010F0000161082020772068C06910F4407F2046F5
:1011000002D0FFF791FF04E000F042F8204600F023
:1011100040F8257720680169C943C90708D1C1682B
:10112000C943C90704D1891E0161204600F032F885
:1011300020680169C943090609D4C168C943090681
:1011400005D46FF0800101612046FFF775FE20682D
:101150000169C943490609D4C168C943490605D490
:101160006FF040010161204600F022F8206801691B
:10117000C94389060BD4C168C943890607D46FF0F7
:10118000200101612046BDE87040FFF756BE70BDEA
:101190007047704700680449884203D103480168DA
:1011A000491C016070470000002C01400400002031
:1011B000704738B5044690F84200202801D002203C
:1011C00038BD61B15AB10120206300206063204620
:1011D00000F0A2FD0028F3D1216B012901D00120EC
:1011E00038BD21680A684968009121680C3151E8CE
:1011F000002F42F0100241E80023002BF5D138BD4A
:10120000084A0068126890420BD1142903D106499C
:10121000012081F82E0004491E2214310148FFF7F5
:10122000C8BF7047A00000201800002070470000D1
:10123000F8B5016804460868CA684B6910F00F0FDA
:101240004FF0000559D003F0010602F490773743C0
:1012500065D0C10705D0D10503D5616C41F001010E
:101260006164410705D5D90703D0616C41F00201E3
:101270006164810705D5D90703D0616C41F0040191
:101280006164010707D502F02001314303D0616C8E
:1012900041F008016164616C00293AD0800604D5F0
:1012A000900602D5204600F07AFC20684069616C07
:1012B000C0F38010090700D460B3204600F03AFC68
:1012C00020684069400621D52068143050E8001F8E
:1012D00021F0400140E80012002AF5D1E06BA8B1EE
:1012E0006D494163E06BFFF737F8002811D0E06BE0
:1012F000416B01B0BDE8F040084783060FD5930667
:101300000DD52046BDE8F84000F049BC2046FFF767
:101310008DFFF8BD2046FFF789FF6564F8BD266B99
:101320002023012E7CD1C6067AD5D60678D508684A
:101330004868009048694FF00206400640D5E16BCE
:10134000086840680004000CE8D0A28D8242E5D90C
:10135000E085886920282DD020680C3050E8001FD7
:1013600021F4807140E80012002AF5D12068143081
:1013700050E8001F21F0010140E80012002AF5D1D9
:101380002068143050E8001F21F0400140E80012AE
:10139000002AF5D184F84230256320680C3050E8EB
:1013A000001F21F0100140E80012002AF5D1E06B87
:1013B000FEF7AEFF6663A08DE18D401A81B22AE090
:1013C000A08DE18D401A81B2E08D0028A6D00029C1
:1013D000A4D022680C3252E8000F20F4907042E84A
:1013E0000007002FF5D12068143050E8002F22F0BC
:1013F000010240E80027002FF5D184F84230256330
:1014000020680C3050E8002F22F0100240E8002342
:10141000002BF5D166632046FFF7F2FEF8BDFFE72B
:1014200005062BD5150629D594F841002128F5D1BC
:10143000A068B0F5805F01D12069B0B1206A411C7D
:101440002162216800784860E08C401E0004000C96
:10145000E084E3D12068C16821F08001C160206888
:10146000C16841F04001C160D8E7206A0088C0F33C
:1014700008004860206A801C2062E5E74006CDD560
:101480005006CBD5CA68204622F04002CA6084F8D4
:10149000413000F00FF9C1E7EB19000870B5040006
:1014A00004D094F84100002510B106E0012070BD81
:1014B00084F84050204600F023F8242084F84100AE
:1014C0002068C16821F40051C160204600F0C8FBCB
:1014D0002068016921F4904101612068416921F08F
:1014E0002A0141612068C16841F40051C16065640E
:1014F000202084F8410084F842006563002070BD1C
:10150000F0B585B00024009401940294039406463B
:1015100003684248404D022103220715AB424DD1DA
:10152000836943F480438361836903F480430493B4
:10153000836943F0040383618069394D00F004003E
:1015400004900802CDE90001039269462846FFF79E
:101550005FF8CDE90074694628460294FFF758F811
:10156000314D30488027C5E90004C5E902472C61A8
:1015700080146C61C5E906402846FEF7E3FF08B118
:10158000FEF7C4FEF5636E622648284D143801C587
:10159000102091C5254845F810496C61AC61EC619B
:1015A000FEF7D0FF08B1FEF7B1FEB5630022114689
:1015B00025206E62FFF78EF9252028E01C4DAB42F6
:1015C00027D1C36943F48023C361C36903F4802333
:1015D0000493836943F0080383618069CDE9007156
:1015E00000F00800CDE90320124D69462846FFF7B8
:1015F0000FF8E814CDE90004694628460294FFF785
:1016000007F8002211462720FFF764F92720FFF78B
:1016100053F905B0F0BD0000003801400010024051
:1016200000080140580002403001002074010020F1
:1016300000480040000C01407047704770B50446F8
:1016400090F84100202801D0022070BD49B342B378
:101650002162A284E28400206064212384F8413066
:10166000A56B114BAB62A56B104BEB62A56B104BDE
:101670002B63A36B5863256813462A1DA06BFEF7E6
:101680008FFF21686FF0400008602068143050E838
:10169000001F41F0800140E80012002AF5D100202F
:1016A00070BD012070BD0000E91A00082B1B000866
:1016B000FB1900087047704770B5002580F82D5061
:1016C000044680F82E501421FEF77EFD142104F10B
:1016D0001400FEF779FDFF2004F8200BE573257454
:1016E0006574A5746561A561A57770BD2DE9F041AC
:1016F000044600781F4EFF2807D001203070BDE857
:10170000F04119211C48FEF75FBDB4F80100002725
:1017100040BA01282BD1E078CA78904227D1164DE3
:101720004FF0020805F1140085F83170227909792B
:101730008A424FF019010ED1FEF7ABFD85F83E004D
:10174000217E884211D185F82F7014212846FEF79A
:101750003BFD042007E0FEF79CFD85F83E00217E5E
:10176000884202D10320307001E086F80080377093
:10177000C5E700000000002018000020FEE7000080
:101780002DE9F04186B0002424480094019402948D
:101790000394816941F010018161816901F01001B8
:1017A0000491816941F020018161816901F020018A
:1017B0000491816941F004018161816901F00401B2
:1017C0000491816941F0080181618069144F00F042
:1017D00008004FF400550490002229463846FFF7D0
:1017E00007F8DFF84080002201214046FFF700F8AB
:1017F0000095022601250396CDE901546946384635
:10180000FEF706FF03960095CDE901546946404670
:10181000FEF7FEFE06B0BDE8F081000000100240B9
:10182000001001400008014010B586B000241748A0
:101830000094019402940394049413490594016064
:101840004721C0E901144FF6FF71C0E90314446158
:101850008461FFF727FB08B172B6FEE74FF48050B2
:10186000009069460948FFF771FB08B172B6FEE7C0
:10187000049404A905480594FFF7E0FA002801D074
:1018800072B6FEE706B010BD002C014058000020E3
:10189000FEE7FEE770477047FEF7B6BF30B58FB082
:1018A00028216846FEF790FC14210AA8FEF78CFC5C
:1018B00001210804CDE900100024029402250491BE
:1018C000CDE907504FF4E01009906846FFF710F992
:1018D00008B172B6FEE70F20CDE90A054FF480602B
:1018E000CDE90C4002210AA80E94FFF725F8002844
:1018F00001D072B6FEE70FB030BD70470148FFF768
:1019000094BB0000580000200148FFF78EBB000088
:1019100058000020F0B50268164B174C174D4FF0D9
:101920008047984205D0B84203D0A04201D0A842D7
:1019300003D122F070064A683243984205D0B8427B
:1019400003D0A04201D0A84203D122F44074CA6857
:1019500022434C6922F08002224302608A68C262FC
:101960000A688262984201D10969016301214161DB
:10197000F0BD0000002C01400004004000080040C1
:1019800010B5846842EA032224F47F440A432243C8
:10199000826010BD826822F070020A4342F00701A3
:1019A0008160704710B5036A046A24F00104046280
:1019B000846924F0F00444EA021423F00A020A4382
:1019C0008461026210BD10B5036A046A24F0100439
:1019D0000462846923F0A00324F4704444EA0232D0
:1019E00043EA01118261016210BD10B5406A002115
:1019F000C185C184FFF71AFC10BD70B5446A206828
:101A0000406994F84110C0F3C0100025212904D189
:101A100018B1E584204600F0B4F82068406994F8D5
:101A20004210C0F38010222904D118B1E585204668
:101A300000F080F8606C40F0100060642046FFF712
:101A4000F5FB70BD10B50146406A096809684FF0A2
:101A5000000289062ED4C28501680C3151E8003F8E
:101A600023F4807341E80034002CF5D1016814316F
:101A700051E8003F23F0010341E80034002CF5D188
:101A80000168143151E8003F23F0400341E800347D
:101A9000002CF5D1202180F84210016B012909D1D9
:101AA00001680C3151E8003F23F0100341E8003495
:101AB000002CF5D14263016B012902D0FFF7BCFD78
:101AC00010BD818DFFF79CFB10BD10B5406A012150
:101AD0004163016B012902D0FFF7AFFD10BD818D7D
:101AE0004908FFF78DFB10BD10B50146406A096833
:101AF0000968890616D40021C1840168143151E8AF
:101B0000002F22F0800241E80023002BF5D101686C
:101B10000C3151E8002F42F0400241E80023002B35
:101B2000F5D110BDFFF7C6FD10BD10B5406AFFF737
:101B3000C2FD10BD01680C3151E8002F22F49072F3
:101B400041E80023002BF5D10168143151E8002F42
:101B500022F0010241E80023002BF5D1016B01299D
:101B600009D101680C3151E8002F22F0100241E840
:101B70000023002BF5D1202180F8421000210163C1
:101B8000704701680C3151E8002F22F0C00241E893
:101B90000023002BF5D1202180F84110704708B5B3
:101BA00090F84210222901D0022008BD82684FF42B
:101BB00080539A4201D1016921B1816A9A421BD0B6
:101BC0004AB10AE00268816A5268C2F308020A80D8
:101BD000816A891C08E0026972B10268526802F0E9
:101BE0007F020A70816A491C8162C18D491E090405
:101BF000090CC18503D01BE002685268F1E7016857
:101C0000CA6822F02002CA600168CA6822F48072A1
:101C1000CA6001684A6922F001024A61202180F805
:101C2000421000214163026B012A03D0FFF704FD3B
:101C3000002008BD016301680C3151E8002F22F03B
:101C4000100241E80023002BF5D101680A68D20692
:101C500002D50A6849680091818DFFF7D1FAE7E75C
:101C600070B5044600680169E26821F440511143EF
:101C700001612169A0680843616908432168CA6855
:101C800041F20C639A430243CA6020684169A26929
:101C900021F44071114341611E492068884202D1FC
:101CA000FEF7F0FE01E0FEF7DDFE00EBC00101EB08
:101CB0000012606864218000B2FBF0F3B3FBF1F323
:101CC0006FF018067343B2FBF0F5B2FBF0F605EBCC
:101CD0008305322303EB0515B5FBF1F5B6FBF1F6F1
:101CE00005F0F00505EB0615B2FBF0F6B2FBF0F0DF
:101CF000B0FBF1F06FF01802504306EB800003EBED
:101D00000010B0FBF1F0216800F00F00284488605B
:101D100070BD00000038014038B5816204468285FC
:101D2000002013466064222284F84220E56B1B4A9F
:101D3000AA62E56B1A4AEA62E56B1A4A2A63E26B09
:101D400050630A462168E06B091DFEF729FC2068F4
:101D5000016840680090206948B120680C3050E864
:101D6000001F41F4807140E80012002AF5D120687C
:101D7000143050E8001F41F0010140E80012002A31
:101D8000F5D12068143050E8001F41F0400140E8D0
:101D90000012002AF5D1002038BD0000451A0008C5
:101DA000CB1A0008FB1900080148FFF741BA0000F0
:101DB000A00000200148FFF73BBA0000E800002027
:101DC000FEE70907090E002804DB00F1E02080F897
:101DD0000014704700F00F0000F1E02080F8141D9F
:101DE0007047000008B5FEF717FDFFF757FDFFF736
:101DF000C7FC3748416941F0010141614069002257
:101E000000F00100009011460E20FEF763FD0E2049
:101E1000FEF752FD002211460F20FEF75BFD0F205A
:101E2000FEF74AFD2C482B494FF4E13600240160AF
:101E3000C0E901640C25C460C0E904458461C46143
:101E4000FFF72CFB08B172B6FEE723482349483060
:101E50000160C0E90164C460C0E904458461C461F3
:101E6000FFF71CFB08B172B6FEE7FFF7DDFC1C486C
:101E7000FFF722FC1A491E2214310E461648FFF7BE
:101E800098F9174D95F82F20012A08D0022A08D07A
:101E9000032A08D0042A08D0052A08D00CE0122210
:101EA00006E0142204E0102202E0112200E01322D6
:101EB00001210B4800F016F895F82E000128E1D119
:101EC00007493046FFF712FC85F82E40DAE700009C
:101ED0000010024000380140A000002000480040EF
:101EE000180000202DE9F041224C054694F83000FE
:101EF000002818D194F832C001231F4E1F4FBCF1A7
:101F0000000F12D03168496A3A8801EB0241A1639F
:101F1000626B891AB1F57A7F05D994F831100129DD
:101F200022D084F83200BDE8F08184F83230FF23FB
:101F30002B706870A970EA70122A01D0142A01D19E
:101F400094F83C00287114212846FEF7A2F9E874A1
:101F5000142208490A4800F015F83068406A3988A8
:101F600000EB01406063DEE784F830306063A0631B
:101F7000D9E70000180000205800002004000020CD
:101F8000A00000201422FFF759BB01020203040540
:101F9000060708090A0B0C0D0E0F101000000000B8
:101FA0000000000001020304060708090000000009
:101FB00001020304D41F00080000002018000000E4
:101FC00028010008EC1F000818000020000800008D
:101FD00044010008000000000000000001000000B3
:0C1FE00010000000000000000024F400CD
:04000005080000ED02
:00000001FF
